:020000040800F2
:1000000000000220B9020008BF020008C302000875
:1000100035030008390300088103000800000000D0
:10002000000000000000000000000000F1190008BE
:10003000CD03000800000000B11A0008151B0008DD
:10004000E5030008E5030008E5030008E5030008F0
:10005000E5030008E5030008E5030008E5030008E0
:10006000E5030008E5030008E5030008E5030008D0
:10007000E5030008E5030008E5030008E5030008C0
:10008000E5030008E5030008E5030008E5030008B0
:10009000E5030008E5030008E5030008E5030008A0
:1000A000E5030008E5030008E5030008E503000890
:1000B000E5030008E5030008E5030008E503000880
:1000C000E5030008E5030008E5030008E503000870
:1000D000E5030008E5030008E5030008E503000860
:1000E000E5030008E5030008E5030008E503000850
:1000F000E5030008E5030008E5030008E503000840
:10010000E5030008E5030008E5030008E50300082F
:10011000E5030008E5030008E5030008E50300081F
:10012000E5030008E5030008E5030008E50300080F
:10013000E5030008E5030008E5030008E5030008FF
:10014000E5030008E5030008E5030008E5030008EF
:10015000E5030008E5030008E5030008E5030008DF
:10016000E5030008E5030008E5030008E5030008CF
:10017000E5030008E5030008E503000800000000AF
:10018000E5030008E503000800B583B001F050F86E
:10019000384B394A1360394A1360394906E052F83E
:1001A000041B43F8041B9842F9D86146354B994229
:1001B00005D20A684B6801F10C0C8868F3E72E4BF6
:1001C0001A68314B9A4200D0FEE72C4B1A682F4B2D
:1001D0009A42F9D1274B2E4A13602E4A13602E4AB9
:1001E00000E002462D4B9A4209D2104650F8083BD7
:1001F00051689942F5D9002243F8042BF9E7244BC2
:100200001B6813B9234B1B6803B1FEE701F0C4F868
:10021000694601A800F054FE214C224BE41AA410B8
:10022000002504E01F4B53F8253098470135AC42B8
:10023000F8DC1D4C1D4BE41AA410002504E01B4BF8
:1002400053F8253098470135AC42F8DC0099019805
:1002500001F098F90546164C164BE41AA41004E078
:10026000013C144B53F824309847002CF8DC284606
:1002700000F0C2FDBABADECA0000002090000020E3
:10028000E8030008000400087856341232547698C7
:1002900094000020343001200004000810040008FD
:1002A00010040008100400081004000810040008DE
:1002B000100400081004000808B5FFF765FF00BE31
:1002C000FEE71EF0040F0CBFEFF30880EFF3098088
:1002D0007146414A10472DE9F04182B004460D466F
:1002E000124B5F6BD3F838809E6A1B6B13F0020FC2
:1002F00003D00E4BDB6A002B0BDB0D4800F074FEC5
:10030000009543463A463146204600F097FE00BE2F
:10031000FEE74BF6AB6100F00BFF0028EDD0034B7E
:100320004FF00042DA6202B0BDE8F08100ED00E07B
:10033000C440000800BEFEE71EF0040F0CBFEFF340
:100340000880EFF309807146244A10472DE9F041F7
:1003500082B004460D46084B5F6BD3F838809E6A26
:10036000064800F041FE009543463A463146204695
:1003700000F064FE00BEFEE700ED00E0D44000089F
:100380001EF0040F0CBFEFF30880EFF309807146F5
:10039000134A10472DE9F04182B004460D46084B40
:1003A0005F6BD3F838809E6A064800F01DFE00950A
:1003B00043463A463146204600F040FE00BEFEE786
:1003C00000ED00E0E040000800BEFEE700BEFEE7F2
:1003D00000BEFEE770470000D70200084D0300088A
:0803E0009503000800BEFEE7D2
:1003E8003C44000800000020940000203C44000821
:1003F8000000001000000010940000203830012098
:080408000000001000000010CC
:1004100010B504460E4B18784FF47A73B3FBF0F323
:100420000C4A1068B0FBF3F000F09CF868B90F2C90
:1004300001D901200AE0002221464FF0FF3000F0F0
:100440004BF8054B1C60002000E0012010BD00BFF0
:10045000040000200C0000200800002008B50B4B11
:100460001A6842F400721A601A6842F480621A60D4
:100470001A6842F480721A60032000F00FF80F200F
:10048000FFF7C6FF01F04EF9002008BD003C024016
:10049000014B1868704700BF9800002010B5044653
:1004A000C31E042B0FD80A4AD36823F4E0631B044D
:1004B0001B0C240204F4E064234343F0BF6343F4C1
:1004C0000033D36010BD9221024800F06DFFEAE7CF
:1004D00000ED00E0403F000870B505460C461646AA
:1004E0000F2A25D80F2C28D81B4BDB68C3F3022317
:1004F000C3F10701042928BF04211A1D062A21D9A6
:10050000033B4FF0FF3202FA01F124EA01049C4060
:1005100002FA03F326EA03063443002D14DB240118
:10052000E4B205F1604505F5614585F8004370BD0D
:10053000AA210A4800F038FFD4E7AB21074800F0B1
:1005400033FFD1E70023DCE705F00F052401E4B217
:10055000034B5C55EBE700BF00ED00E0403F0008B7
:1005600014ED00E00138B0F1807F0BD24FF0E023B2
:100570005861054AF02182F8231000209861072273
:100580001A6170470120704700ED00E010B5044685
:10059000042800D040B9042C0CD04FF0E02213699D
:1005A00023F00403136110BD40F2C911054800F0A7
:1005B000FBFEF0E74FF0E022136943F00403136100
:1005C000F1E700BF403F0008002800F0588270B5F6
:1005D00082B0044603680F2B39D8236813F0010F4B
:1005E0004DD063682BB1B3F5803F02D0B3F5A02F97
:1005F00032D1804B9B6803F00C03042B36D07D4B2B
:100600009B6803F00C03082B2BD06368B3F5803F85
:100610005FD0B3F5A02F62D0764B1A6822F48032F7
:100620001A601A6822F480221A606368002B60D076
:10063000FFF72EFF05466F4B1B6813F4003F1ED1DA
:10064000FFF726FF401B6428F5D903201EE2E821AE
:10065000694800F0A9FEC0E7ED21674800F0A4FE5C
:10066000C7E7644B5B6813F4800FCED0614B1B6807
:1006700013F4003F03D06368002B00F0028223686C
:1006800013F0020F66D0E368012B41D823691F2BBA
:1006900044D8584B9B6813F00C0F4AD0554B9B68BD
:1006A00003F00C03082B3FD0E368002B77D0534BAB
:1006B00001221A60FFF7ECFE05464E4B1B6813F053
:1006C000020F63D1FFF7E4FE401B0228F5D9032097
:1006D000DCE1484A136843F480331360A5E7454BD7
:1006E0001A6842F480221A601A6842F480321A6052
:1006F0009BE7FFF7CDFE05463E4B1B6813F4003F1A
:10070000BDD0FFF7C5FE401B6428F5D90320BDE12D
:1007100040F21F11384800F047FEB7E74FF49071E0
:10072000354800F041FEB4E7324B5B6813F4800FAC
:10073000BAD1304B1B6813F0020F03D0E368012BD2
:1007400040F0A1812B4A136823F0F803216943EAA2
:10075000C1031360236813F0080F51D06369012BA4
:100760002FD863699BB3254B0122C3F8802EFFF776
:100770008FFE05461F4B5B6F13F0020F40D1FFF752
:1007800087FE401B0228F5D903207FE1194A136830
:1007900023F0F803216943EAC1031360DAE7174B3A
:1007A00000221A60FFF774FE0546124B1B6813F017
:1007B000020FCFD0FFF76CFE401B0228F5D90320B3
:1007C00064E14FF4B0710C4800F0EEFDC9E70B4B4B
:1007D0000022C3F8802EFFF75BFE0546054B5B6FDA
:1007E00013F0020F0CD0FFF753FE401B0228F5D97F
:1007F00003204BE100380240743F000800004742EC
:10080000236813F0040F7CD0A368012B01D9052BBA
:1008100038D1A34B1B6C13F0805F39D100230193B7
:100820009F4B1A6C42F080521A641B6C03F0805389
:100830000193019B01259B4B1B6813F4807F29D0FA
:10084000A368012B3AD0052B3ED0954B1A6F22F0AE
:1008500001021A671A6F22F004021A67A368002BBC
:100860003CD0FFF715FE06468D4B1B6F13F0020FB1
:1008700045D1FFF70DFE801B41F288339842F3D932
:10088000032003E14FF4C671874800F08DFDC0E7F7
:100890000025D0E7834A136843F480731360FFF7A1
:1008A000F7FD06467F4B1B6813F4807FC8D1FFF726
:1008B000EFFD801B0228F5D90320E7E0784A136F8B
:1008C00043F001031367C9E7754B1A6F42F0040246
:1008D0001A671A6F42F001021A67BFE7FFF7D8FDE7
:1008E00006466F4B1B6F13F0020F08D0FFF7D0FDC9
:1008F000801B41F288339842F3D90320C6E0002DD3
:100900003BD1A369022B3ED8A369002B00F0BD8028
:10091000634A926802F00C02082A00F09080022BD1
:1009200079D1E36913B1B3F5800F32D1236A3F2B3C
:1009300035D8636A323BB3F5BF7F36D8A36A022B42
:1009400005D0042B03D0062B01D0082B33D1E36A4A
:10095000023B0D2B35D8554B00221A66FFF798FD48
:1009600005464F4B1B6813F0007F30D0FFF790FD1A
:10097000401B0228F5D9032088E0494A136C23F074
:1009800080531364BDE740F2CF11474800F00CFDDF
:10099000BAE74FF4EC71444800F006FDC6E740F2B8
:1009A000D911414800F000FDC3E74FF4ED713E4816
:1009B00000F0FAFCC2E740F2DB113B4800F0F4FC27
:1009C000C5E74FF4EE71384800F0EEFCC3E7E36989
:1009D000226A1343626A43EA8213A26A5208013A06
:1009E00043EA0243E26A43EA02632D4A53602F4B13
:1009F00001221A66FFF74CFD0446294B1B6813F0D1
:100A0000007F06D1FFF744FD001B0228F5D9032023
:100A10003CE000203AE0254B00221A66FFF738FD43
:100A200004461F4B1B6813F0007F06D0FFF730FD14
:100A3000001B0228F5D9032028E0002026E0012B26
:100A400026D0174B5B6803F48001E269914221D103
:100A500003F03F02216A8A421ED1616A47F6C072E2
:100A60001A408A421AD103F44032A16A8A421FD145
:100A700003F07063E26A93421CD1002006E001207B
:100A80007047012002E0012000E0002002B070BDAC
:100A90000120FBE70120F9E70120F7E70120F5E756
:100AA0000038024000700040743F000800004742D8
:100AB0000120EBE70120E9E708B5314B9B6803F023
:100AC0000C03042B57D0082B57D12D4B5A6802F03A
:100AD0003F025B6813F4800F2AD0294B5968C1F399
:100AE000881C4FEA4C11B1EB0C006EEB0E0E4FEA76
:100AF0008E1343EA90638101091A63EB0E03DB0056
:100B000043EA5173C90011EB0C0C43F10003590285
:100B100000234FEA4C2041EADC5102F0DBFB184B8A
:100B20005B68C3F3014301335B00B0FBF3F025E0E6
:100B3000134B5968C1F3881C4FEA4C11B1EB0C0000
:100B40006EEB0E0E4FEA8E1343EA90638101091A91
:100B500063EB0E03DB0043EA5173C90011EB0C0C8D
:100B600043F10003990200234FEA8C2041EA9C5193
:100B700002F0B0FBD3E7034800E0034808BD00BF24
:100B80000038024000127A000024F400002800F02F
:100B9000F78070B50D4604460368013B0E2B6BD8F9
:100BA000072D6FD87A4B1B6803F00F03AB4208D2B6
:100BB000EBB2774A1370136803F00F03AB4240F0B7
:100BC000E180236813F0020F29D013F0040F04D042
:100BD000704A936843F4E0539360236813F0080F5E
:100BE00004D06C4A936843F460439360A3687BB17C
:100BF000802B0DD0902B0BD0A02B09D0B02B07D081
:100C0000C02B05D0D02B03D0E02B01D0F02B3FD14F
:100C1000604A936823F0F003A1680B439360236854
:100C200013F0010F4ED06368032B37D86368012B94
:100C30003AD09A1E012A3ED9564A126812F0020F83
:100C400000F0A28053498A6822F0030213438B60AC
:100C5000FFF71EFC06464F4B9B6803F00C036268CF
:100C6000B3EB820F2ED0FFF713FC801B41F28833C9
:100C70009842F0D9032076E040F25121464800F036
:100C800093FB8DE740F25221434800F08DFB89E74A
:100C900040F27521404800F087FBB9E74FF41F711F
:100CA0003D4800F081FBC1E73A4A126812F4003F68
:100CB000C8D1012057E0374A126812F0007FC1D135
:100CC000012050E0324B1B6803F00F03AB4207D901
:100CD000EAB22F4B1A701B6803F00F03AB4255D1D9
:100CE000236813F0040F14D0E3685BB1B3F5805FA1
:100CF00008D0B3F5A05F05D0B3F5C05F02D0B3F55F
:100D0000E05F31D1234A936823F4E053E1680B4359
:100D10009360236813F0080F15D023695BB1B3F516
:100D2000805F08D0B3F5A05F05D0B3F5C05F02D0F7
:100D3000B3F5E05F1ED1174A936823F4604321693D
:100D400043EAC1039360FFF7B7FE124B9B68C3F3FE
:100D50000313124AD35CD840114B1860114B18682A
:100D6000FFF756FB002070BD40F2BA210A4800F0A0
:100D70001BFBC7E740F2C121074800F015FBDAE78B
:100D8000012070470120EEE70120ECE70120EAE7AF
:100D9000003C024000380240743F0008F040000868
:100DA0000C00002008000020014B1868704700BFAD
:100DB0000C00002008B503460C4A12685AB10B4AD1
:100DC0001068033323F003030344094A934206D80F
:100DD000064A136008BD054A06491160EFE702F0B4
:100DE000FBFB0C2303604FF0FF30F3E79C00002077
:100DF00000FC01203830012000B530B9044D182422
:100E000020462946ABBE0446FEE7024DF7E700BF89
:100E100026000200230002002DE9F04184B0234F98
:100E200001970326039600230293012401AD204677
:100E30002946ABBE80461E4BC3F80080019703963F
:100E40000423029320462946ABBE8046194BC3F8C3
:100E50000080019703960823029320462946ABBEE3
:100E60000446154B1C60B4F1FF3F01D000230AE09B
:100E7000104B1A68104B1A60F8E7104A4FF0FF3118
:100E800042F833100133132BF7DD0C4B084A12687C
:100E90001A6000225A60074909689960DA600649B9
:100EA000096819615A6104B0BDE8F081A43F0008E7
:100EB00020010020240100201C0100202801002026
:100EC0002DE9F04383B0814688462A4B00934F2397
:100ED000019315276C4638462146ABBE0746AFBB8B
:100EE000244B002283F84F20009A3E463C463D4664
:100EF00007E001321E46204B43F82520013501242E
:100F0000013292F90030FBB164B91C4959560029ED
:100F1000F6DB092BF4D0082D16DC222BE9D0272B89
:100F2000E9D1E6E736B19E42EAD1002313703E468E
:100F30003C46E5E711495956002901DB092BDFD171
:100F4000002313703446DBE73DB900E00025094B70
:100F500000221A70084A13600135074B002243F83B
:100F60002520C9F80050C8F80030FFF755FF03B03E
:100F7000BDE8F083A0000020F00000209D420008A2
:100F80002DE9F04385B004460F46435633BB042594
:100F900028462146ABBE0446384605B0BDE8F0837E
:100FA00014F901CB04AA1A4402F810CC0133AB4265
:100FB000F6D304AA1344002203F8102C4FF00408BF
:100FC000E94640464946ABBE8046761B002EE3D03C
:100FD0003546102E28BF10250023E8E70E46F5E71A
:100FE00008B5FFF7CDFF08BD0FB400B583B004AB63
:100FF00053F8042B01938021074802F0B3FB00282B
:1010000004DC03B05DF804EB04B07047014602480D
:10101000FFF7E6FFF5E700BFC801002010B5044662
:1010200002F06CFB01462046FFF7DAFF012102487F
:10103000FFF7D6FF10BD00BF40400008F8B50446DA
:101040000D4617461E462748FFF7CEFF2168264863
:10105000FFF7CAFF61682548FFF7C6FFA16824486B
:10106000FFF7C2FFE1682348FFF7BEFF216922486E
:10107000FFF7BAFF61692148FFF7B6FFA169204871
:10108000FFF7B2FFE1691F48FFF7AEFF1E48FFF709
:10109000ABFF29461D48FFF7A7FF1D4CE16A1D481D
:1010A000FFF7A2FF216B1C48FFF79EFFE16B1B4877
:1010B000FFF79AFF15F0800F0AD115F4004F0CD1FD
:1010C0001748FFF791FF06991648FFF78DFFF8BD07
:1010D00039461548FFF788FFEFE731461348FFF719
:1010E00083FFEDE7A83F0008B83F0008C83F0008AD
:1010F000D83F0008E83F0008F83F00080840000813
:101100001840000828400008384000084440000803
:1011100000ED00E0544000086440000874400008FE
:10112000A4400008AC400008844000089440000837
:1011300038B583691B888B4201D0002038BD044636
:1011400003684568013B302B69D8DFE803F046218E
:101150001C1C5E30332D1919681919191919361903
:101160002468192768396868686868686868686802
:1011700068686868686868686868686868191900F5
:101180004FF0FF330360A3690233A3610120D5E769
:1011900000230360F7E700230360F4E700232B60DC
:1011A0006B60AB60EB60EEE700230360EBE7AB68DE
:1011B0000360E8E700230360E5E700230360E2E75C
:1011C000BFF34F8F1749CA6802F4E062164B13430E
:1011D000CB60BFF34F8F00BFFDE71449286802F0D2
:1011E00083FA40B96B6813B901232360CBE7042B62
:1011F00005D0082B06D04FF0FF332360C3E702234E
:101200002360C0E703232360BDE72B68023B012B6B
:1012100002D9AB680360B6E700230360B3E70020A0
:101220008CE700BF00ED00E00400FA05A43F0008D1
:1012300008B500F009F8024A024B9A6008BD00BFE9
:101240000000000800ED00E0024B4FF000629A60E1
:10125000704700BF00ED00E0224B9B6803F00C03D9
:10126000042B14D0082B16D01BB11F4B1F4A1A6039
:1012700002E01D4B1D4A1A601A4B9B68C3F303130F
:101280001B4AD15C184A1368CB4013607047164B59
:10129000184A1A60F0E7134B59685A6802F03F0287
:1012A00011F4800F13D0134BB3FBF2F30D4A5268C5
:1012B000C2F3881202FB03F30A4A5268C2F30142E6
:1012C00001325200B3FBF2F3074A1360D4E7074B35
:1012D000B3FBF2F3034A5268C2F3881202FB03F332
:1012E000EAE700BF003802400C0000200024F400B0
:1012F000F040000800127A0030B595B00024019447
:10130000224B1A6C42F080521A641B6C03F080531B
:101310000193019B02941E4B1A6842F480421A60AA
:101320001B6803F480430293029B012308934FF44C
:10133000803309934FF480030F93082310934FF4E5
:10134000A873119302251295072313930E9508A8ED
:10135000FFF73AF90F230393049505944FF4A05334
:1013600006934FF480530793052103A8FFF70EFC63
:10137000FFF71AFD074BA3FB00308009FFF7F2F8D7
:101380000420FFF703F915B030BD00BF003802405C
:1013900000700040D34D621008B5FFF75FF8FFF70B
:1013A000ABFFFFF759FF08BD08B50A4601460248E2
:1013B000FFF71AFEFEE700BF0041000808B5002352
:1013C0001A4619460348006800F0CFFD0248FFF7AF
:1013D0000BFE08BD740200203041000808B5002350
:1013E0001A4619460348006800F0BFFD0248FFF79F
:1013F00015FE08BD700200204841000800B587B006
:1014000002AB00240294039404940594144A9C466D
:1014100007CAACE803008CF800208DF81140019356
:1014200003E0104A13680133136000234FF0FF32CA
:1014300019460D48006800F0C2FE01F0ADF90590B4
:1014400000231A4601A90948006800F08EFD084BE8
:1014500018600128E5D1074A136801331360E4E7F7
:101460007842000848020020740200206002002038
:10147000640200205402002070B582B0324B1B7809
:10148000BBB9324A1360324A1360324A13602E4BA2
:1014900019784FF0FF33009300232F4A52F8212090
:1014A00004212E48006801F09BFD002832D102B0D3
:1014B00070BD062B17D0264D29682948FFF794FDEB
:1014C000224E31682748FFF78FFD224C21682648BD
:1014D000FFF78AFD0021316029602160234B1868E5
:1014E00000F0CCFCD3E70A24009400231A4605211F
:1014F0001A48006801F074FD009400231A46052183
:101500001B48006801F06CFD1A48FFF787FD01F0E9
:1015100029F9BCE7104D0C4C237855F823101648D8
:10152000FFF762FD237855F823101448FFF75CFDA0
:101530000A4B186801F0C1FE01461148FFF754FD3F
:10154000237801332370B2E74C02002048020020C8
:1015500054020020500200201000002080020020D1
:101560006C4100088C410008AC410008600200207A
:101570007802002060410008D0410008F8410008CE
:101580002842000830B583B03B4B00930023012272
:10159000C8213A4801F00AFD394B1860394B0093D5
:1015A000002301226421384801F000FD374C2060FF
:1015B00003220021012000F0B4FC354B1860032207
:1015C0000021012000F0ADFC324B18600022042104
:1015D000022000F0A6FC304B1860304B0193012331
:1015E0000093002364222E492E4801F047F82E4B29
:1015F00018602E4B019302230093002364222C4990
:101600002C4801F03BF82C4B1860FFF735FF23689E
:10161000DBB11B4B1D68C5B101F0BEF802460024CA
:10162000009423460121284601F0DAFC234B186080
:10163000164B1D6801F0B0F80246009423460121C4
:10164000284601F0CDFC1E4B18601D4B1B68012B7A
:1016500002D0002003B030BD184B1B68012BF8D11D
:10166000114B1B68012BF4D1134B1B68012BF0D1DC
:1016700001F036F8EDE700BFDD130008484200082E
:1016800078020020BD1300085842000880020020A4
:101690007402002070020020600200205C02002022
:1016A00064420008FD1300086C020020580200206C
:1016B0006C420008C5160008680200207C02002069
:1016C0008402002000B583B000234FF0FF3219469A
:1016D0000A48006800F073FD00231A4601A9084873
:1016E000006800F06CFD074B1860074A136801336F
:1016F0001360142BE8D1FFF7BFFEE5E7700200206E
:10170000600200206402002050020020FEE7FEE795
:1017100000B583B000F026F90190019B03B05DF89D
:1017200004FB704770470000124A12F0070F1ED0EA
:10173000D11D21F00701C1F5963313440A460E4826
:101740000260002141601344083B23F007030B486B
:10175000036059601960991A51601360084B196051
:10176000084B1960084B4FF000421A6070474FF465
:101770009633E4E78C020020982E01208802002096
:10178000942E0120902E01208C2E0120164B1A46FB
:101790001B688342FBD3516802EB010C844509D0DE
:1017A000416800EB010C634509D00360904219D0F9
:1017B000106070474068014451601046F0E710B473
:1017C0000A4C2468A3420BD05B681944416013683B
:1017D0001B680360904200D010605DF8044B7047B6
:1017E0000460F7E7704700BF982E012088020020B0
:1017F00070B5054600F0C8FF394B1B689BB1394BEB
:101800001B681D4212D135B1083515F0070F02D003
:1018100025F007050835D5B1334B1B68AB421AD309
:10182000324A14681DE0FFF77FFFE8E701F04EF849
:101830000026FFF76BFF16F0070F4FD04FF0500355
:1018400083F31188BFF36F8FBFF34F8FFEE701F073
:101850003DF80026EDE701F039F80026E9E72246D9
:101860001C466368AB4202D22368002BF7D11C4BA5
:101870001B68A34214D01668083623681360636897
:101880005B1B102B14D9601910F0070F0CD04FF010
:10189000500383F31188BFF36F8FBFF34F8FFEE7C1
:1018A00001F014F80026C4E743606560FFF76EFF9F
:1018B00062680D490B689B1A0B600D4909688B42E1
:1018C00001D20B490B60074B1B6813436360002375
:1018D000236000F0FBFF002EADD1AAE7304670BDBB
:1018E000880200208C2E0120902E0120982E0120AD
:1018F000942E012080B338B50446A0F1080550F8B5
:10190000043C164A1268134208D14FF0500383F387
:101910001188BFF36F8FBFF34F8FFEE750F8081C9D
:1019200041B14FF0500383F31188BFF36F8FBFF3C2
:101930004F8FFEE723EA020340F8043C00F024FF47
:1019400054F8041C064A13680B4413602846FFF73A
:101950001DFF00F0BBFF38BD704700BF8C2E01207B
:10196000902E0120014B1868704700BF902E012077
:101970000B4B1B68B3F1FF3F08D04FF0500383F3CC
:101980001188BFF36F8FBFF34F8FFEE74FF0500307
:1019900083F31188BFF36F8FBFF34F8FFEE700BF54
:1019A0002800002006480068006880F3088862B6B6
:1019B00061B6BFF34F8FBFF36F8F00DF00BF000032
:1019C00008ED00E04FF0807340F8043C21F0010185
:1019D00040F8081C054B40F80C3C40F8202C6FF0F8
:1019E000020340F8243C4438704700BF71190008D6
:1019F000074B19680868B0E8F04F80F30988BFF317
:101A00006F8F4FF0000080F311887047AFF30080B4
:101A1000E82E0120074B1B68B3F57A7F08D04FF002
:101A2000500383F31188BFF36F8FBFF34F8FFEE72F
:101A3000704700BF280000204FF0500383F3118847
:101A4000BFF36F8FBFF34F8F0B4A136801331360DF
:101A5000012B00D070474FF0E023D3F8043D13F082
:101A6000FF0FF7D04FF0500383F31188BFF36F8F50
:101A7000BFF34F8FFEE700BF28000020094B1B6813
:101A800043B94FF0500383F31188BFF36F8FBFF357
:101A90004F8FFEE7013B034A13600BB983F31188B4
:101AA000704700BF28000020000000000000000078
:101AB000EFF30980BFF36F8F154B1A681EF0100FFC
:101AC00008BF20ED108A20E9F04F10604DF8043D6A
:101AD0004FF0500080F31188BFF34F8FBFF36F8F2B
:101AE00000F0B6FF4FF0000080F3118808BC1968C1
:101AF0000868B0E8F04F1EF0100F08BFB0EC108A75
:101B000080F30988BFF36F8F704700BFAFF3008089
:101B1000E82E012008B54FF0500383F31188BFF37E
:101B20006F8FBFF34F8F00F03DFE28B14FF0E023E1
:101B30004FF08052C3F8042D002383F3118808BDB1
:101B4000064B1B68064AA2FB03239B09013B4FF08F
:101B5000E022536107231361704700BF0C0000208F
:101B6000D34D62104FF0E023D3F8002D344B9A424E
:101B70001CD04FF0E023D3F8002D324B9A421ED0F8
:101B800010B582B0304B1A78D2B20192FF221A708F
:101B90001B78DBB28DF803309DF8033003F050035F
:101BA0002A4A13702A4B07221A601BE04FF0500399
:101BB00083F31188BFF36F8FBFF34F8FFEE74FF0B2
:101BC000500383F31188BFF36F8FBFF34F8FFEE78E
:101BD0001F4A1368013B13609DF803305B00DBB2C2
:101BE0008DF803309DF8033013F0800FF0D1184AC0
:101BF00013681B02136003F4E0631360019BDBB204
:101C0000114A13704FF0E024D4F8203D43F47003E0
:101C1000C4F8203DD4F8203D43F07043C4F8203D83
:101C2000FFF78EFF0B4B00221A60D4F8343F43F0CD
:101C30004043C4F8343FFFF7B5FEFFF799FE00BFFD
:101C400071C20F4170C20F4100E400E0A02E0120DC
:101C5000A42E012028000020EFF305830F2B0FD9BD
:101C6000114A9B5CDBB2114A12789A4208D94FF0B4
:101C7000500383F31188BFF36F8FBFF34F8FFEE7DD
:101C80004FF0E023D3F80C3D03F4E063084A1268F8
:101C9000934208D94FF0500383F31188BFF36F8F3D
:101CA000BFF34F8FFEE77047F0E300E0A02E012066
:101CB000A42E012000F1080343604FF0FF32826040
:101CC000C360036100230360704700230361704712
:101CD00043684B609A688A60516099600861036844
:101CE00001330360704730B40D68B5F1FF3F11D088
:101CF00000F108031C465B681A68AA42FAD96368B7
:101D00004B6099608C606160086103680133036017
:101D100030BC70470469F2E70369416882688A60F1
:101D2000416851605A68824205D0002202611868F9
:101D300001381860704782685A60F6E710B50446AB
:101D4000FFF77AFEA26BE36B9A4204D00024FFF700
:101D500095FE204610BD0124F9E710B50446FFF7B3
:101D60006BFEA36B23B90124FFF788FE204610BD4C
:101D70000024F9E770B504461546866B026C5AB923
:101D800003681BB100200136A66370BD406800F0F7
:101D9000FBFF00236360F6E76DB9806801F024FC67
:101DA000226CA3681344A3606268934219D323682A
:101DB000A3602846E7E7C06801F016FC226C514298
:101DC000E3689B1AE3602268934202D263680B4483
:101DD000E360022D01D00020D5E726B1013E0020AE
:101DE000D1E72846CFE70020CDE70346026C6AB171
:101DF00010B50846D9681144D9605C68A14201D386
:101E00001968D960D96801F0EFFB10BD704738B58B
:101E10000546FFF711FE95F8454064B201E0013C2C
:101E200064B2002C0ADD6B6A43B105F1240000F0B6
:101E3000A9FE0028F3D000F041FFF0E7FF2385F86A
:101E40004530FFF71BFEFFF7F7FD95F8444064B2FD
:101E500001E0013C64B2002C0ADD2B6943B105F1BD
:101E6000100000F08FFE0028F3D000F027FFF0E70D
:101E7000FF2385F84430FFF701FE38BD38B5E0B1E7
:101E80000D460446FFF7D8FD2368E26B216C01FB89
:101E9000023060600020A063A360013A02FB0133BE
:101EA000E360FF2384F8443084F84530FDB92369AA
:101EB00063B9FFF7E3FD012038BD4FF0500383F312
:101EC0001188BFF36F8FBFF34F8FFEE704F110004F
:101ED00000F058FE0028ECD04FF0E0234FF0805285
:101EE000C3F8042DBFF34F8FBFF36F8FE1E704F109
:101EF0001000FFF7DFFE04F12400FFF7DBFED8E758
:101F000038B51D46049C0B4649B92460E063236440
:101F100001212046FFF7B2FF84F84C5038BD226003
:101F2000F4E740B94FF0500383F31188BFF36F8F8C
:101F3000BFF34F8FFEE7F0B583B00C46154606465B
:101F400089B101FB00F05030FFF752FC074638B171
:101F500000902B4600F1500221463046FFF7D0FF9B
:101F6000384603B0F0BD0846EDE7F0B585B0019204
:101F700088B10F461D460446B1B1022D20D1E36B56
:101F8000012B1DD04FF0500383F31188BFF36F8FE7
:101F9000BFF34F8FFEE74FF0500383F31188BFF379
:101FA0006F8FBFF34F8FFEE7036C002BE5D04FF030
:101FB000500383F31188BFF36F8FBFF34F8FFEE79A
:101FC00000F082FE064658B9019B002B48D04FF026
:101FD000500383F31188BFF36F8FBFF34F8FFEE77A
:101FE00000263DE02A4639462046FFF7C3FE636AD5
:101FF0007BB948B14FF0E0234FF08052C3F8042D75
:10200000BFF34F8FBFF36F8FFFF738FD012005B08F
:10201000F0BD04F1240000F0B5FD0028F4D04FF02D
:10202000E0234FF08052C3F8042DBFF34F8FBFF36E
:102030006F8FE9E7FFF722FD0020E8E702A800F034
:10204000E7FD012619E0002384F8443021E0002355
:1020500084F8453023E02046FFF7D9FE00F036FC37
:10206000FFF7EAFCA26BE36B9A42BBD3022DB9D017
:10207000019B002BDED0002EE0D0FFF7FFFC00F02C
:1020800083FBFFF7D9FC94F8442052B2B2F1FF3F32
:10209000D9D094F8452052B2B2F1FF3FD7D0FFF724
:1020A000EDFC01A902A800F0C9FDD8B92046FFF750
:1020B00045FE0028CFD0019904F1100000F02EFD5C
:1020C0002046FFF7A4FE00F001FC0028C8D14FF025
:1020D000E0234FF08052C3F8042DBFF34F8FBFF3BE
:1020E0006F8FBDE72046FFF792FE00F0EFFB002068
:1020F0008DE72DE9F84390B10F4616461C4605467C
:10210000B1B1022C20D1EB6B012B1DD04FF050034D
:1021100083F31188BFF36F8FBFF34F8FFEE74FF04C
:10212000500383F31188BFF36F8FBFF34F8FFEE728
:10213000036C002BE5D04FF0500383F31188BFF3FD
:102140006F8FBFF34F8FFEE7FFF786FDEFF3118927
:102150004FF0500383F31188BFF36F8FBFF34F8F9E
:10216000AA6BEB6B9A4206D3022C04D0002089F3B1
:102170001188BDE8F88395F845804FFA88F8224623
:1021800039462846FFF7F6FDB8F1FF3F06D008F1C3
:1021900001035BB285F845300120E8E76B6A0BB9B3
:1021A0000120E4E705F1240000F0ECFC18B126B1B1
:1021B00001203060DBE70120D9E70120D7E72DE9D6
:1021C000F04184B00192A0B10E4698460446C9B1D0
:1021D00000F07AFD054608BB019B002B00F08780CC
:1021E0004FF0500383F31188BFF36F8FBFF34F8F0E
:1021F000FEE74FF0500383F31188BFF36F8FBFF3F7
:102200004F8FFEE7036C002BE2D04FF0500383F3B7
:102210001188BFF36F8FBFF34F8FFEE7002566E095
:10222000E56831462046FFF7E0FDB8F1000F20D108
:102230007B1EA36323683BB123694BB9FFF71EFCE8
:10224000012004B0BDE8F08100F0F8FD6060F3E724
:1022500004F1100000F096FC0028EFD04FF0E023CE
:102260004FF08052C3F8042DBFF34F8FBFF36F8F31
:10227000E4E7E560636A002BE0D004F1240000F09D
:1022800081FC0028DAD04FF0E0234FF08052C3F8F1
:10229000042DBFF34F8FBFF36F8FCFE7FFF7EEFB38
:1022A0000020CEE702A800F0B3FC012529E00023BE
:1022B00084F8443031E0002384F8453033E0FFF700
:1022C000BBFB606800F010FDFFF7D8FB3BE0204649
:1022D000FFF79DFD00F0FAFA09E02046FFF797FDB1
:1022E00000F0F4FA2046FFF738FD002842D1FFF74E
:1022F000A3FBA76B002F93D1019B002BCED0002D09
:10230000D0D0FFF7BBFB00F03FFAFFF795FB94F846
:10231000442052B2B2F1FF3FC9D094F8452052B2E6
:10232000B2F1FF3FC7D0FFF7A9FB01A902A800F057
:1023300085FC0028D1D12046FFF70FFD0028C6D02C
:102340002368002BBBD0019904F1240000F0E6FBC8
:102350002046FFF75CFD00F0B9FA0028C7D14FF026
:10236000E0234FF08052C3F8042DBFF34F8FBFF32B
:102370006F8FBCE7002064E70023072B0CD8074AC7
:1023800052F833200AB10133F7E7044A42F8331018
:1023900002EBC30358607047704700BFA82E0120AE
:1023A00070B504460D461646FFF746FB94F84430D8
:1023B0005BB2B3F1FF3F0DD094F845305BB2B3F19F
:1023C000FF3F0BD0FFF75AFBA36B5BB12046FFF733
:1023D0001EFD70BD002384F84430EDE7002384F82F
:1023E0004530EFE73246294604F1240000F0AEFB09
:1023F000ECE70000084B1B681B6823B9074B4FF044
:10240000FF321A607047044B1B68DB68DB685A6850
:10241000024B1A60704700BFEC2E01209C2F012058
:1024200010B50446006BFFF765FA2046FFF762FA25
:1024300010BD2DE9F04780460D4617469946089E87
:10244000DDF824A00A9C9200A521206B01F0DAF8A7
:10245000236B07F18042013A03EB820727F007075D
:102460004FF0000CBCF1090F0BD815F90C2004EB50
:102470000C0383F8342015F90C3013B10CF1010C66
:10248000F0E7002384F83D30042E00D90426E662EC
:10249000A6640025E564201DFFF717FC04F1180071
:1024A000FFF713FC2461C6F10506A6616462256589
:1024B00084F854504A4641463846FFF783FA206074
:1024C000BAF1000F01D0CAF80040BDE8F087000063
:1024D00038B5002407E004EB840293000E4818444A
:1024E000FFF7E8FB0134042CF5D90C4D2846FFF723
:1024F000E1FB0B4C2046FFF7DDFB0A48FFF7DAFB58
:102500000948FFF7D7FB0948FFF7D4FB084B1D60CC
:10251000084B1C6038BD00BFF42E0120702F012035
:10252000842F0120A42F0120D02F0120BC2F0120B7
:10253000EC2E0120F02E012010B50446FFF77CFAA6
:10254000224A136801331360214B1B685BB1214B96
:102550001B686BB91E4B1B68DA6AE36A9A4207D89C
:102560001B4B1C6004E01A4B1C601368012B29D024
:10257000194A1368013313602364E06A012383401E
:10258000164A11680B43136000EB8000211D144BA9
:1025900003EB8000FFF79CFBFFF770FA0D4B1B6805
:1025A0007BB10B4B1B68DA6AE36A9A4209D24FF09F
:1025B000E0234FF08052C3F8042DBFF34F8FBFF3D9
:1025C0006F8F10BDFFF784FFD2E700BF582F0120A7
:1025D000E82E0120B82F0120682F01206C2F012048
:1025E000F42E012070B504460D461D4B1E681D4B90
:1025F00018680430FFF790FB50B91A4B1B68DA6A71
:10260000012303FA02F218490B6823EA02030B6064
:10261000B4F1FF3F0DD03444124B1B685C60A642FE
:1026200010D9124B18680F4B19680431FFF75BFB88
:1026300070BD002DEFD00B4B196804310C48FFF72B
:1026400047FBF5E70B4B1868064B19680431FFF799
:102650004AFB094B1B68A342EAD9074B1C60E7E71A
:10266000E42F0120E82E01206C2F0120F02E012004
:10267000BC2F0120EC2E01209C2F01202DE9F043DE
:1026800085B00746884614461E469000FFF7B0F80E
:10269000F0B181465820FFF7ABF80546A0B1C0F86D
:1026A0003090D5B10023039302950D9B01930C9BB1
:1026B00000933346224641463846FFF7BAFE284685
:1026C000FFF73AFF012005E04846FFF713F9E8E776
:1026D0004FF0FF3005B0BDE8F0834FF0FF30F9E771
:1026E00000B583B0194B019300230093822218494F
:1026F0001848FFF7C3FF012807D0012808D0B0F120
:10270000FF3F1AD003B05DF804FB00F027FCF4E7AC
:102710004FF0500383F31188BFF36F8FBFF34F8FD8
:102720000D4B4FF0FF321A600C4B01221A600C4B1C
:1027300000221A60FFF716FAE4E74FF0500383F324
:102740001188BFF36F8FBFF34F8FFEE7982F0120E3
:1027500084420008212A00089C2F0120B82F012064
:10276000E42F012008B54FF0500383F31188BFF325
:102770006F8FBFF34F8F034B00221A60FFF74AF9A8
:1027800008BD00BFB82F0120024A1368013313604F
:10279000704700BF642F0120014B1868704700BFCD
:1027A000E42F0120F8B53E4B1B68002B6AD13D4B4E
:1027B0001D6801351D60C5B93B4B1B681B6843B1E3
:1027C0004FF0500383F31188BFF36F8FBFF34F8F28
:1027D000FEE7354A1168354B186810601960344AB5
:1027E000136801331360FFF705FE324B1B68AB42E1
:1027F0003ED90027304B1B68DB6A03EB83039A004A
:102800002E4B9B58012B00D901272D4B1B68002B09
:102810003FD1FEF786FF3CE00127234B1B681B6876
:1028200043B3214B1B68DB68DC6863689D4226D399
:10283000261D3046FFF770FAA36A1BB104F1180099
:10284000FFF76AFAE36A01229A401E4908680243C8
:102850000A6003EB83039A00314618481044FFF7DF
:1028600037FAE26A144B1B68DB6A9A42D4D2D4E787
:102870000027D2E70F4B4FF0FF321A60BAE70D4A3C
:102880001360B7E70E4A136801331360FEF749FF80
:1028900000270D4B1B6803B101273846F8BD00BF68
:1028A000642F0120E42F0120EC2E0120F02E0120C6
:1028B000A02F01209C2F0120E82E0120F42E0120C2
:1028C000602F01206C2F0120E82F012038B5354BF7
:1028D0001B6843B94FF0500383F31188BFF36F8F28
:1028E000BFF34F8FFEE7FFF7A7F82E4B1A68013AA8
:1028F0001A601B68002B4FD12B4B1B680BB90024AF
:102900004BE00024294B1B681BB3284BDB68DC68B9
:1029100004F11800FFF700FA251D2846FFF7FCF91F
:10292000E06A01238340224A11680B43136000EBE5
:10293000800029461F4B03EB8000FFF7C9F9E26ACC
:102940001D4B1B68DB6A9A42DCD31C4B01221A60C8
:10295000D8E70CB1FFF74EFD194B1C6884B9174B33
:102960001C68D4B14FF0E0234FF08052C3F8042D1F
:10297000BFF34F8FBFF36F8F01240EE0013C07D0F0
:10298000FFF710FF0028F9D00C4B01221A60F5E781
:102990000B4B00221A60E2E70024FFF76FF8204695
:1029A00038BD00BF642F0120582F0120A42F012023
:1029B0006C2F0120F42E0120E82E0120E82F0120A9
:1029C000602F0120134B1B6813B310B5FFF7DCFE1B
:1029D000114B1C68FFF77AFF24B90E4B1B68002BC4
:1029E000F4D110BDFFF728F80B4BDB68DC68201D25
:1029F000FFF792F9094A1368013B1360054A13680F
:102A0000013B1360FFF73AF82046FFF709FDE4E7C2
:102A1000704700BF5C2F0120D02F0120582F0120CC
:102A200008B50BE04FF0E0234FF08052C3F8042DBF
:102A3000BFF34F8FBFF36F8FFEF76AFEFFF7C2FF42
:102A4000024B1B68012BEDD8F6E700BFF42E0120E6
:102A500008B52D4B1B681BB12C4B01221A6008BD19
:102A60002A4B00221A602A4B1B681B6B1A68B2F1B2
:102A7000A53F03D15A68B2F1A53F1BD0244B18687B
:102A800019683431FEF743FE224B1B68B3FA83F317
:102A9000DBB2C3F11F0303EB83018A001E498A588E
:102AA0008AB94FF0500383F31188BFF36F8FBFF3E0
:102AB0004F8FFEE79A68B2F1A53FDFD1DB68B3F133
:102AC000A53FDBD1E0E7144903EB830082000A4411
:102AD00050684068506003EB830C4FEA8C02083268
:102AE0001144884209D003EB83039A000A4B134434
:102AF0005B68DA68064B1A60B1E74068624691008D
:102B0000054A0A445060EEE7642F0120E82F0120B7
:102B1000E82E01206C2F0120F42E012058B110B5B1
:102B20000C46094A11681831FFF7DDF801212046EB
:102B3000FFF758FD10BD4FF0500383F31188BFF32A
:102B40006F8FBFF34F8FFEE7E82E012038B570B1CD
:102B50000D4614460A4A11681831FFF7B9F80CB14E
:102B60004FF0FF3521462846FFF73CFD38BD4FF0BA
:102B7000500383F31188BFF36F8FBFF34F8FFEE7CE
:102B8000E82E012038B5C368DC6824B304F11805C9
:102B90002846FFF7C1F8184B1B682BBB251D28469C
:102BA000FFF7BAF8E06A01238340144A11680B4327
:102BB000136000EB80002946114B03EB8000FFF708
:102BC00087F8E26A0F4B1B68DB6A9A4211D9012031
:102BD0000D4B186038BD4FF0500383F31188BFF3DD
:102BE0006F8FBFF34F8FFEE729460848FFF770F855
:102BF000E7E70020EEE700BF642F01206C2F0120E3
:102C0000F42E0120E82E0120E82F0120A42F01201E
:102C100030B1084A12680260074A12684260704781
:102C20004FF0500383F31188BFF36F8FBFF34F8FC3
:102C3000FEE700BFA02F0120E42F012038B5C0B16E
:102C40000C460546F1B1FEF7F7FE1A4B1A682368E9
:102C5000B3F1FF3F27D0286817490968884202D09E
:102C60006968914224D96968501A834213D80124B3
:102C70001AE04FF0500383F31188BFF36F8FBFF357
:102C80004F8FFEE74FF0500383F31188BFF36F8F30
:102C9000BFF34F8FFEE78A1A134423602846FFF7DD
:102CA000B7FF002400E00024FEF7E8FE204638BD10
:102CB0000124F9E7E42F0120A02F0120014B01227C
:102CC0001A607047E82F0120054B1B6833B1054B94
:102CD0001B680BB10020704702207047012070472D
:102CE000B82F0120642F0120002845D038B50446B4
:102CF000C36A224A1268D26A934214D28269002AB5
:102D000005DB1E4A1268D26AC2F10502826161695E
:102D100003EB83031A4A02EB8303994204D0174B57
:102D20001B68DB6AE36238BD251D2846FEF7F4FF09
:102D300090B1124B1B68D86AE06201238340114AAC
:102D400011680B43136000EB800029460C4B03EB2A
:102D50008000FEF7BDFFE6E7E36A03EB8301084A64
:102D600052F82120002AE4D101229A4005490B683B
:102D700023EA02030B60DCE7704700BFE82E012066
:102D8000F42E01206C2F012000284CD038B50446C9
:102D9000274B1B68834208D04FF0500383F3118800
:102DA000BFF36F8FBFF34F8FFEE7C36C43B94FF094
:102DB000500383F31188BFF36F8FBFF34F8FFEE78C
:102DC000013BC364C16A826C91422ED00BB10020DA
:102DD00038BD051D2846FEF79FFF70B9E26A02EB79
:102DE0008201144B53F821303BB9012303FA02F25C
:102DF00011490B6823EA02030B60A06CE062C0F18A
:102E00000503A361012404FA00F30B4A11680B4384
:102E1000136000EB80002946064B03EB8000FEF7B1
:102E200057FF2046D4E7002070470020D0E700BFBE
:102E3000E82E0120F42E01206C2F0120054B1B6889
:102E400023B1044B1A68D36C0133D364014B186867
:102E5000704700BFE82E0120064B1A681368B3FACA
:102E600083F35B09036013B9D368186870470020C7
:102E7000704700BFEC2F012008B54160006191420E
:102E80000CD8D21A83699A4201D3012008BD011DD2
:102E9000094B1868FEF727FF0020F7E79A4201D296
:102EA000994206D2011D054B1868FEF71CFF002051
:102EB000ECE70120EAE700BFF02F0120EC2F012012
:102EC00038B5FEF7B9FD0F4B1B6813B1FEF7D6FD01
:102ED00038BD0D4D2846FEF7EDFE0C4C2046FEF7A2
:102EE000E9FE0B4B1D600B4B1C6000220C210A20DD
:102EF000FFF717F8034B18600028E7D00649FFF7E3
:102F00003BFAE3E720300120F42F012008300120B4
:102F1000EC2F0120F02F01208C4200082DE9F04118
:102F2000079F41B94FF0500383F31188BFF36F8FB0
:102F3000BFF34F8FFEE7064615461C4688465FB135
:102F4000FFF7BEFF3E60C7F81880FD613C62069B3C
:102F50007B62381DFEF7B9FEBDE8F08100B583B095
:102F6000FFF7AEFF0D4B1B685BB10D4B01930223C6
:102F7000009300234FF482720A490B48FFF77EFB4F
:102F800040B94FF0500383F31188BFF36F8FBFF345
:102F90004F8FFEE703B05DF804FB00BF2030012037
:102FA0002430012094420008A53200082DE9F041A8
:102FB00082B00446884615461E462C20FEF718FCB3
:102FC000074640B10190089B009333462A4641468C
:102FD0002046FFF7A3FF384602B0BDE8F0810000AD
:102FE000B8B19C4603461848006858B300B585B090
:102FF00001910292039305291CDCFFF765FE02286C
:1030000010D000231A4601A90F480068FEF7ADFF53
:1030100015E04FF0500383F31188BFF36F8FBFF3B8
:103020004F8FFEE70023069A01A907480068FEF7C4
:103030009CFF04E00023624601A9FFF75AF805B09F
:103040005DF804FB002070472030012070B582B08D
:103050001A4B1B681A6852B3DB681E68DC68251DB2
:103060002846FEF759FE636A20469847E369012B1C
:10307000EED1A36933449E4207D26360246129469E
:103080000E4B1868FEF72FFEE2E7002100910B4679
:1030900032462046FFF7A4FF0028D9D14FF0500355
:1030A00083F31188BFF36F8FBFF34F8FFEE7044A9E
:1030B000106802490860136002B070BDEC2F012057
:1030C000F02F012038B50546FFF766FB0446074B95
:1030D0001B68834205D800232B60044B1C602046EC
:1030E00038BDFFF7B3FF01232B60F6E71C3001204A
:1030F00070B582B006460D4614490968C968CC68A7
:10310000201DFEF709FEE169012904D0636A20460B
:10311000984702B070BDA16933462A463144204623
:10312000FFF7AAFE0028F1D0002100910B4632469D
:103130002046FFF755FF0028E8D14FF0500383F3F6
:103140001188BFF36F8FBFF34F8FFEE7EC2F012085
:1031500070B582B006460C46FFF716FB01A8FFF7D4
:10316000B1FF019B2BBB05460CB9B0421AD22CB162
:10317000124B1B681C68B4FA84F464092246711B64
:103180000F4B1868FFF70CF9FFF7A0FB98B94FF049
:10319000E0234FF08052C3F8042DBFF34F8FBFF3ED
:1031A0006F8F08E0FFF792FB29463046FFF7A0FF3C
:1031B00001E0FFF78BFB02B070BD00BFF02F0120D4
:1031C0002030012010B586B000231A4603A93448E8
:1031D0000068FEF7F4FF002860D0039B002BF3DBB0
:1031E000059C636913B1201DFEF796FD02A8FFF749
:1031F00069FF039B092BE7D801A252F823F000BF17
:10320000293200082932000829320008C931000893
:103210006F32000895320008293200082932000870
:10322000C93100086F320008049BA16902461944A5
:103230002046FFF721FE0028C6D0636A2046984743
:10324000E369012BC0D1A269002100910B460498CB
:1032500002442046FFF7C4FE0028B5D14FF05003CA
:1032600083F31188BFF36F8FBFF34F8FFEE704998D
:10327000A16131B10346024601442046FFF7FCFD3F
:10328000A2E74FF0500383F31188BFF36F8FBFF3B2
:103290004F8FFEE72046FEF72DFB95E706B010BDE9
:1032A0002030012000B583B001A8FFF7D5FD0199BA
:1032B000FFF74EFFFFF786FFF6E708B1806970471A
:1032C0004FF0500383F31188BFF36F8FBFF34F8F1D
:1032D000FEE7000053B94AB9002908BF00281CBF07
:1032E0004FF0FF314FF0FF3000F074B9ADF1080C32
:1032F0006DE904CE00F006F8DDF804E0DDE9022314
:1033000004B070472DE9F047089D04468E46002B17
:103310004DD18A42944669D9B2FA82F252B101FA89
:1033200002F3C2F1200120FA01F10CFA02FC41EA99
:10333000030E94404FEA1C48210CBEFBF8F61FFA1E
:103340008CF708FB16E341EA034306FB07F19942B9
:103350000AD91CEB030306F1FF3080F01F8199426C
:1033600040F21C81023E63445B1AA4B2B3FBF8F046
:1033700008FB103344EA034400FB07F7A7420AD9CD
:103380001CEB040400F1FF3380F00A81A74240F2F5
:1033900007816444023840EA0640E41B00261DB160
:1033A000D4400023C5E900433146BDE8F0878B4295
:1033B00009D9002D00F0EF800026C5E90001304654
:1033C0003146BDE8F087B3FA83F6002E4AD18B422E
:1033D00002D3824200F2F980841A61EB03030120D8
:1033E0009E46002DE0D0C5E9004EDDE702B9FFDEC4
:1033F000B2FA82F2002A40F09280A1EB0C014FEA6F
:103400001C471FFA8CFE0126200CB1FBF7F307FBCB
:10341000131140EA01410EFB03F0884208D91CEB6E
:10342000010103F1FF3802D2884200F2CB8043460B
:10343000091AA4B2B1FBF7F007FB101144EA0144EA
:103440000EFB00FEA64508D91CEB040400F1FF3179
:1034500002D2A64500F2BB800846A4EB0E0440EA67
:1034600003409CE7C6F12007B34022FA07FC4CEA70
:10347000030C20FA07F401FA06F31C43F9404FEA63
:103480001C4900FA06F3B1FBF9F8200C1FFA8CFE78
:1034900009FB181140EA014108FB0EF0884202FACC
:1034A00006F20BD91CEB010108F1FF3A80F088808D
:1034B000884240F28580A8F102086144091AA4B24A
:1034C000B1FBF9F009FB101144EA014100FB0EFECB
:1034D0008E4508D91CEB010100F1FF346CD28E45FA
:1034E0006AD90238614440EA0840A0FB0294A1EB8B
:1034F0000E01A142C846A64656D353D05DB1B3EBE8
:10350000080261EB0E0101FA07F722FA06F3F14017
:103510001F43C5E9007100263146BDE8F087C2F1BE
:103520002003D8400CFA02FC21FA03F39140014336
:103530004FEA1C471FFA8CFEB3FBF7F007FB10366F
:103540000B0C43EA064300FB0EF69E4204FA02F41B
:1035500008D91CEB030300F1FF382FD29E422DD96E
:10356000023863449B1B89B2B3FBF7F607FB1633A3
:1035700041EA034106FB0EF38B4208D91CEB010123
:1035800006F1FF3816D28B4214D9023E6144C91AA3
:1035900046EA004638E72E46284605E70646E3E6B3
:1035A0001846F8E64B45A9D2B9EB020864EB0C0EBD
:1035B0000138A3E74646EAE7204694E74046D1E7CC
:1035C000D0467BE7023B614432E7304609E764447A
:1035D000023842E7704700BF014B1868704700BFD0
:1035E0002C000020704770470A44914200F1FF33DD
:1035F00000D1704710B511F8014B03F8014F91420B
:10360000F9D110BD02440346934200D1704703F83C
:10361000011BF9E7F8B5CD1C25F0030508350C2D85
:1036200038BF0C25002D064601DBA94203D90C2327
:1036300033600020F8BD00F0A3F821490A68144661
:103640009CB9204F3B6823B92146304600F03CF836
:1036500038602946304600F037F8431C23D10C234C
:103660003360304600F092F8E3E723685B1B17D421
:103670000B2B03D923601C44256004E06368A2423D
:103680000CBF0B605360304600F080F804F10B0073
:10369000231D20F00700C21ACCD01B1AA350C9E783
:1036A00022466468CCE7C41C24F00304A042E3D0A3
:1036B000211A304600F008F80130DDD1CFE700BF15
:1036C0002C3001203030012038B5064D002304464F
:1036D00008462B60FDF76EFB431C02D12B6803B13B
:1036E000236038BD1801002010F8012B11F8013BB0
:1036F000012A28BF9A42F7D0D01A7047034613F820
:10370000012B002AFBD1181A0138704730B5144636
:10371000002C9BB005461A4605DA8B2303604FF058
:10372000FF301BB030BD4FF40273ADF80C3014BF46
:1037300004F1FF332346029305934FF6FF73009184
:103740000491ADF80E3069461E9B00F0CDF8431C85
:10375000BCBF8B232B60002CE3D0009B00221A708F
:10376000DFE7000007B5009313460A460146034809
:103770000068FFF7CBFF03B05DF804FB2C000020CE
:103780000148FFF72FBF00BF283001200148FFF795
:103790002ABF00BF2830012037B5002944D051F896
:1037A000043C0190002BA1F10404B8BFE418FFF71A
:1037B000E7FF1E4A0198136833B96360146003B0D1
:1037C000BDE83040FFF7E2BFA34208D92568611980
:1037D0008B4201BF19685B6849192160EDE71A4601
:1037E0005B680BB1A342FAD911685518A5420BD1F9
:1037F000246821445418A3421160E0D11C685B681E
:10380000536021441160DAE702D90C230360D6E744
:10381000256861198B4204BF19685B68636004BF47
:10382000491921605460CAE703B030BD2C30012033
:103830002DE9F0478E689E4282460C4690461F4610
:1038400038D88A8912F4906F32D025680969A5EBBF
:103850000109656905EB450505EBD57501334B4459
:103860006D109D4238BF1D46530531D52946FFF7DF
:10387000D1FE064650B90C23CAF80030A38943F0A4
:103880004003A3814FF0FF30BDE8F08721694A462D
:10389000FFF7AAFEA38923F4906343F08003A3817A
:1038A000266165614E44A5EB09052660A5603E468C
:1038B000BE4200D93E4620683246414600F0F8FA42
:1038C000A3689B1BA3602368334423600020DBE7CD
:1038D0002A4600F007FB06460028E1D12169504640
:1038E000FFF75AFFC7E700002DE9F04F98468B8994
:1038F0001B069DB007460D4614460ED50B6963B9ED
:103900004021FFF787FE2860286120B90C233B6027
:103910004FF0FF30D1E040236B6100230993202357
:103920008DF82930CDF80C803023DFF8A8818DF890
:103930002A304FF0010923469A4613F8012B0AB1A9
:10394000252AF9D1BAEB040B0BD05B462246294657
:103950003846FFF76DFF013000F0AA80099A5A44FB
:1039600009929AF80030002B00F0A28000234FF05B
:10397000FF32CDE905230AF1010A049307938DF87C
:1039800053301A935446052214F8011B514800F095
:103990003FFA049AD8B9D00644BF20238DF853309B
:1039A000110744BF2B238DF853309AF800302A2B8F
:1039B00015D0079A544600204FF00A0C214611F802
:1039C000013B303B092B4ED9B0B1079214E0A0EB7C
:1039D000080309FA03F313430493A246D2E7039BB7
:1039E000191D1B680391002BBBBF5B4242F0020212
:1039F00007930793B8BF049223782E2B0CD16378DA
:103A00002A2B35D1039B1A1D1B680392002BB8BFCC
:103A10004FF0FF3302340593DFF8C8A0217803226A
:103A2000504600F0F5F940B14023A0EB0A0003FA3C
:103A300000F0049B03430134049314F8011B26484F
:103A40008DF82810062200F0E3F9002838D0234B27
:103A50001BBB039B073323F0070308330393099B26
:103A60003344099367E70CFB02320C460120A5E7BB
:103A700000230134059319464FF00A0C204610F834
:103A8000012B303A092A03D9002BC5D00591C3E791
:103A90000CFB012104460123F0E703AB00932A4607
:103AA0000F4B04A93846AFF30080421C0646D6D11E
:103AB000AB895B063FF52CAF09981DB0BDE8F08FD0
:103AC00003AB00932A46064B04A9384600F07AF867
:103AD000EBE700BF004400080A44000800000000B3
:103AE00031380008064400082DE9F047164699468B
:103AF0008A680B69DDF820809342B8BF13463360B3
:103B000091F8432007460C460AB10133336023681D
:103B1000990642BF336802333360256815F0060505
:103B200006D104F1190AE36832689B1AAB4226DC1D
:103B300094F84320131E226818BF012392062BD449
:103B400004F1430249463846C04701301ED023687D
:103B5000E568326803F00603042B08BFAD1AA368BA
:103B600022690CBF25EAE57500259342C4BF9B1A64
:103B7000ED1800261A34B5421AD1002008E00123BE
:103B8000524649463846C047013003D14FF0FF3016
:103B9000BDE8F0870135C6E7E1185A1C302081F8EE
:103BA0004300224494F8451082F843100233C7E7DB
:103BB0000123224649463846C0470130E6D0013647
:103BC000D9E700002DE9FF470F7E0C9D782F914625
:103BD00080460C469A4601F1430207D8622F0AD864
:103BE000002F00F0D880582F00F0A38004F1420588
:103BF00084F842703AE0A7F16303152BF6D801A1CF
:103C000051F823F05D3C0008713C0008ED3B0008D2
:103C1000ED3B0008ED3B0008ED3B0008713C00085F
:103C2000ED3B0008ED3B0008ED3B0008ED3B0008D4
:103C30007D3D0008A13C00085F3D0008ED3B000809
:103C4000ED3B00089F3D0008ED3B0008A13C00084B
:103C5000ED3B0008ED3B0008673D00082B681A1D8E
:103C60001B682A6004F1420584F842300123A3E076
:103C700020682968060601F104030AD50E682B6046
:103C8000002E03DA2D23764284F843305E480A235F
:103C900019E00E682B6010F0400F18BF36B2EFE746
:103CA0002B682068191D2960010601D51E6802E0F5
:103CB0004606FBD51E8854486F2F0CBF08230A23E5
:103CC000002184F843106568A560002DA2BF21681B
:103CD00021F0040121600EB9002D4DD01546B6FB30
:103CE000F3F103FB1167C75D05F8017D3746BB4261
:103CF0000E46F4D9082B0BD12368DE0708D52369BB
:103D000061689942DEBF302305F8013C05F1FF35BB
:103D1000521B2261CDF800A04B4603AA2146404623
:103D2000FFF7E2FE01304CD14FF0FF3004B0BDE8A8
:103D3000F087354881F845702968236851F8046B8D
:103D400029601D0614D5DF0744BF43F0200323601C
:103D50001EB9236823F0200323601023B0E72368F3
:103D600043F0200323607823284884F84530E3E7B4
:103D7000590648BFB6B2E6E71546BBE72B6826688A
:103D80006169181D286035061B6801D5196002E0BD
:103D90007006FBD51980002323611546BAE72B680E
:103DA0001A1D2A601D6862680021284600F030F85C
:103DB00008B1401B606063682361002384F84330CE
:103DC000A8E723692A4649464046D0470130ABD090
:103DD00023689B0713D4E068039B9842B8BF18463A
:103DE000A4E70123324649464046D04701309BD0E4
:103DF0000135E36803995B1AAB42F2DCEBE700257F
:103E000004F11906F5E700BF114400082244000838
:103E100001F0FF01102A2BDB10F0070F08D010F87B
:103E2000013B013A8B422DD010F0070F42B3F6D17F
:103E3000F0B441EA012141EA014122F007047FF098
:103E400000070023F0E80256083C85EA010586EAEF
:103E5000010685FA47F5A3FA87F586FA47F6A5FA2B
:103E600087F68EB9EED1F0BC01F0FF0102F0070237
:103E700032B110F8013B013A83EA010313B1F8D1E2
:103E80000020704701387047002D06BF35460338C3
:103E9000073815F0010F07D1013015F4807F02BFFC
:103EA000013015F4C03F0130F0BC0138704700BF4D
:103EB000884210B501EB020402D98442234607D898
:103EC000431EA14208D011F8012B03F8012FF8E797
:103ED000024401468A4200D110BD13F8014D02F898
:103EE000014DF7E7F8B5074614460E4621B9BDE87F
:103EF000F8401146FFF78EBB22B9FFF74DFC25466F
:103F00002846F8BD00F014F8A0420FD221463846EA
:103F1000FFF780FB05460028F2D031462246FFF726
:103F200063FB31463846FFF737FCE9E73546E7E7FC
:103F300051F8043C181F002BBCBF0B58C018704729
:103F40002E2E2F73797374656D2F7372632F7374B4
:103F50006D333266342D68616C2F73746D33326645
:103F60003478785F68616C5F636F727465782E6314
:103F7000000000002E2E2F73797374656D2F7372FD
:103F8000632F73746D333266342D68616C2F7374D4
:103F90006D3332663478785F68616C5F7263632E6C
:103FA000630000003A747400537461636B2066729E
:103FB000616D653A0A000000205230203D20202526
:103FC0003038580A00000000205231203D202025C2
:103FD0003038580A00000000205232203D202025B1
:103FE0003038580A00000000205233203D202025A0
:103FF0003038580A0000000020523132203D202580
:104000003038580A00000000204C52203D20202566
:104010003038580A00000000205043203D20202561
:104020003038580A0000000020505352203D20250F
:104030003038580A000000004653522F4641523A89
:104040000A0000002043465352203D2020253038EE
:10405000580A00002048465352203D202025303881
:10406000580A00002044465352203D202025303875
:10407000580A00002041465352203D202025303868
:10408000580A0000204D4D464152203D2025303831
:10409000580A00002042464152203D202025303859
:1040A000580A00004D6973630A000000204C522F2B
:1040B0004558435F52455455524E3D20253038589F
:1040C0000A0000005B486172644661756C745D0AA9
:1040D000000000005B4275734661756C745D0A00F8
:1040E0005B55736167654661756C745D0A0000001D
:1040F0000000000000000000010203040607080998
:1041000057726F6E6720706172616D65746572734E
:104110002076616C75653A2066696C652025732090
:104120006F6E206C696E652025640D0A000000002A
:10413000686920696E2073656E6465722063616CC6
:104140006C6261636B0A0000686920696E207265A9
:104150006365697665722063616C6C6261636B0094
:1041600047616D65204F766572212100546F74613F
:104170006C207375636365737366756C6C792073FB
:10418000656E743A2025640A00000000546F746163
:104190006C20626C6F636B65642066726F6D207358
:1041A000656E64696E673A2025640A00546F746115
:1041B0006C207375636365737366756C6C792072BC
:1041C000656365697665643A2025640A000000002D
:1041D000537461727420636F756E74696E672061C9
:1041E000742073656E6465722074696D6572202534
:1041F00064206D730A000000537461727420636F51
:10420000756E74696E672061742073656E64657283
:104210002074696D657220696E205469636B732028
:104220002564200A000000004173737572696E678F
:104230002074686520706572696F64203D20256474
:10424000206D730A0000000054696D657252656349
:10425000656976657200000054696D657253656E1C
:104260006465720073656E646572000072656365F3
:10427000697665720000000054696D6520697320DD
:104280000000000049444C4500000000546D72518C
:1042900000000000546D722053766300002020203F
:1042A00020202020202028282828282020202020E6
:1042B00020202020202020202020202020881010B6
:1042C0001010101010101010101010101004040412
:1042D00004040404040404101010101010104141D0
:1042E00041414141010101010101010101010101BE
:1042F00001010101010101011010101010104242D2
:10430000424242420202020202020202020202028D
:10431000020202020202020210101010200000002D
:10432000000000000000000000000000000000008D
:10433000000000000000000000000000000000007D
:10434000000000000000000000000000000000006D
:10435000000000000000000000000000000000005D
:10436000000000000000000000000000000000004D
:10437000000000000000000000000000000000003D
:10438000000000000000000000000000000000002D
:10439000000000000000000000000000000000001D
:1043A000000000000000000000000000000000000D
:1043B00000000000000000000000000000000000FD
:1043C00000000000000000000000000000000000ED
:1043D00000000000000000000000000000000000DD
:1043E00000000000000000000000000000000000CD
:1043F00000000000000000000000000000000000BD
:10440000232D302B2000686C4C00656667454647BD
:104410000030313233343536373839414243444540
:1044200046003031323334353637383961626364AF
:03443000656600BE
:08443400D0EEFF7F0100000043
:10443C007856341201FFFFFF100000000024F40036
:10444C00640000008C000000B4000000DC000000E0
:10445C00040100002C010000AAAAAAAA3000002026
:10446C0000000000C0430008E0430008A04300081F
:10447C000000000000000000000000000000000030
:10448C000000000000000000000000000000000020
:10449C000000000000000000000000000000000010
:1044AC000000000000000000000000000000000000
:1044BC0000000000000000000000000000000000F0
:0444CC003254769858
:040000050800018965
:00000001FF
